:020000040000FA
:060000004FEF1FF012009B
:020006001200E6
:06000800F7EF00F012000A
:0600180022EF00F01200CF
:02001E000300DD
:10002000433F0000000200002D000000FC3E0000E5
:100030006000000047000000BA3E0000A70000007A
:04004000420000007A
:0C004400D8CFE4FFE0CFE4FFE46EDACF99
:10005000E4FFE2CFDAFFE9CFE4FFEACFE4FFF6CF37
:10006000E4FFF7CFE4FFF5CFE4FFF3CFE4FFF4CFF5
:10007000E4FFFACFE4FF00EE00F0140EE80403E31F
:10008000EECFE4FFFBD700EE14F0130EE80403E319
:10009000EECFE4FFFBD7E652D9CFE6FFE1CFD9FFA1
:1000A000E652F2A06BD00001A75167E18050100B1F
:1000B00001E0010EB15D11E08050100B01E0010E76
:1000C000E66E010EE66E35EC11F0E552E552805019
:1000D000100B01E0010E0001B16F8050080B01E030
:1000E000010EAF5D10E08050080B01E0010EE66EDE
:1000F000E66A35EC11F0E552E5528050080B01E05C
:10010000010E0001AF6F8050200B01E0010EB05DC9
:1001100011E08050200B01E0010EE66E020EE66E4B
:1001200035EC11F0E552E5528050200B01E0010E54
:100130000001B06F8050010BB25D1FE0DB2B000EA1
:10014000DC23E651000816E2E35103E1010EE36F00
:1001500011D08050010BE26FE607000EE66EE66AF2
:1001600025EC05F0E552E5520001E65103E1020EEF
:10017000E76F82788050010BB26FF2909EAC0AD08C
:10018000C450286E276AC35000012710C76F28C0CB
:10019000C8F09E9CE552E552E7CFD9FFE55200EE4C
:1001A00026F0130EE80403E3E5CFEDFFFBD700EEE6
:1001B00013F0140EE80403E3E5CFEDFFFBD7E5CF22
:1001C000FAFFE5CFF4FFE5CFF3FFE5CFF5FFE5CF8D
:1001D000F7FFE5CFF6FFE5CFEAFFE5CFE9FFE5CF93
:1001E000DAFFE550E5CFE0FFE5CFD8FF1000DACF2A
:1001F000E4FFE2CFDAFFE9CFE4FFEACFE4FFF6CF96
:10020000E4FFF7CFE4FFF5CFE4FFF3CFE4FFF4CF53
:10021000E4FFFACFE4FF00EE00F0140EE80403E37D
:10022000EECFE4FFFBD700EE14F0130EE80403E377
:10023000EECFE4FFFBD7E652F2A432D08050020B9F
:1002400017E10001D05114E1D52BD551296E2A6A4E
:10025000020E295C000E2A580BE3D32B000ED42388
:10026000010ED06F000EE66EE66AEFDBE552E55256
:100270000001AD2B000EAE23050EAD5D000EAE5994
:100280000AE3DBC0DDF0DCC0DEF0DB6BDC6B010E13
:10029000A86FAD6BAE6BF70ED76EDC0ED66EF29418
:1002A000E55200EE26F0130EE80403E3E5CFEDFF80
:1002B000FBD700EE13F0140EE80403E3E5CFEDFFE7
:1002C000FBD7E5CFFAFFE5CFF4FFE5CFF3FFE5CFAE
:1002D000F5FFE5CFF7FFE5CFF6FFE5CFEAFFE5CF86
:1002E000E9FFE5CFDAFF1100D9CFE6FFE1CFD9FF73
:1002F000E652DF6A6496700ED312F70ED76EDC0EEC
:10030000D66EF294810ED56ED08E380E776E786AE6
:10031000806A300E926E796A936A7A6AF19EF184ED
:10032000F190E80EF26E6D6A6B6A686A696A800E17
:10033000946E829A040ECA6E0C0EBD6EBE6A010ED9
:10034000B96EA00ECB6EB00EBA127E6A020E7F6E30
:10035000BE0EC06E080EC16E250EC26E9E9C9D8C98
:100360009F9C640EE66EC8EC1EF0E5528298EBECA2
:100370000FF0020EE66EE3EC1EF0E552D7EC05F04E
:10038000000903E10001010EE86F0201040E1A6F7B
:100390000201010E206FC9C014F2CAC015F2C9C013
:1003A00022F2CAC023F2E66881DAE5523B0E796E8A
:1003B0000001A76BE66AE66A91EC0FF0E552E552A0
:1003C0000001C71D01E1C81D01E065D80001A805B5
:1003D000F7E1F1D8F5D70001CD51BD5DCE51BE5941
:1003E00055E3BDC008F0BEC009F00FEC16F007C021
:1003F0001CF008C01DF009C01EF00AC01FF00C6AF6
:100400000D6A700E0E6E420E0F6EB9EC16F007C03C
:1004100018F008C019F009C01AF00AC01BF0D6C0C5
:1004200009F0FCEC15F007C020F008C021F009C06D
:1004300022F00AC023F007C00CF008C00DF009C07C
:100440000EF00AC00FF018C007F019C008F01AC06B
:1004500009F01BC00AF00CEC17F007C014F008C03C
:1004600015F009C016F00AC017F00C6A0D6AC00E2C
:100470000E6E420E0F6EB9EC16F007C0D7F008C032
:10048000D8F009C0D9F00AC0DAF01200D76BD86BE7
:10049000D96BDA6B1200D9CFE6FFE1CFD9FF030E9B
:1004A000E126DF6A010EDB6A020EDB6ACBC01AF0BE
:1004B000CCC01BF01C6AC7C017F0C8C018F0196A7E
:1004C00018BE196817C007F018C008F019C009F065
:1004D0001AC00CF01BC00DF01CC00EF0D3EC17F0CE
:1004E00004C014F005C015F006C016F0FC0E0C6E2A
:1004F000030E0D6E0E6A04C007F005C008F006C0BA
:1005000009F079EC17F007C014F008C015F009C025
:1005100016F007C0DFFF010E08C0DBFF020E09C0A6
:10052000DBFF0001BD51BE1107E1000EDFCFBDF0C2
:10053000010EDBCFBEF027D0BDC01AF0BEC01BF04D
:100540001C6A1BBE1C68D9CFE9FFDACFEAFFEE5068
:100550001A24176EEE501B20186EEE501C20196ED8
:10056000010E1F0B17C014F018C015F019C016F0BB
:1005700006E0D890163215321432E806FAE114C0BB
:10058000BDF015C0BEF00001BD51CB5DBE51CC59D0
:1005900004E2CBC0BDF0CCC0BEF01DDF0001C769D6
:1005A000C869030EE15C02E2E16AE552E16EE552E0
:1005B000E7CFD9FF1200D9CFE6FFE1CFD9FF060E72
:1005C000E126DE6ADD6A020EDB6A030EDB6A040ED8
:1005D000DB6A050EDB6A0001A92B000EAA23DDC031
:1005E00014F0DEC015F0166A15BE16681450DF2729
:1005F0001550E0231650E123CF5101E082D0D051B5
:1006000001E07FD00C6A0D6A0E6A0F6AD7C007F04E
:10061000D8C008F0D9C009F0DAC00AF052EC18F0DE
:10062000010A4CE1DDC008F0DEC009F00FEC16F065
:1006300007C014F008C015F009C016F00AC017F082
:1006400007C00CF008C00DF009C00EF00AC00FF092
:10065000D7C007F0D8C008F0D9C009F0DAC00AF056
:1006600022EC16F007C0C3F008C0C4F009C0C5F002
:100670000AC0C6F007C0E6FF08C0E6FF09C0E6FFF3
:100680000AC0E6FFD7C0E6FFD8C0E6FFD9C0E6FF44
:10069000DAC0E6FFBAEC19F0146E080EE15E1450F1
:1006A000F3CFDEFFF4CFDDFFDECF14F0DDCF15F0AA
:1006B0000001800E151402E0DE6ADD6A0001BF1D34
:1006C00001E1C01D19E0BF2B000EC023DECF14F0E6
:1006D000DDCF15F0C0511518E8AE02D0153404D0A6
:1006E0001450BF5D1550C05903E3BF69C06904D001
:1006F000BFC0DEFFC0C0DDFFDECFC1F0DDCFC2F086
:1007000030D0E65107E0E35101E1E42BE451DE6E25
:10071000DD6A27D0E75107E0E707E75122E1827859
:1007200010EC1DF01ED0BF6BC06BC23512E2C15180
:100730000008000EC2550DE2C107000EC25B800E1C
:10074000C21502E0C16BC26BC1C0DEFFC2C0DDFFDB
:1007500002D0DE6ADD6AC36BC46BC56BC66B3FEC4F
:1007600019F0DECFE6FFDDCFE6FF6FD9E552E552A7
:100770000001D06BD56BA9C014F0AAC015F0000120
:10078000156A030E1416145015102CE10001CF51F8
:100790001DE1BE351BE2BD510008000EBE5516E23C
:1007A000DF51E011E11112E1130EAB5D000EAC5907
:1007B00008E3020ECF6FE66AE66A91EC0FF0E552AD
:1007C000E5520001AB2B000EAC2302D0AB6BAC6B3F
:1007D000C71D08E1C81D06E1C250020B03E1250E4A
:1007E000C26EC282A9C0E6FFAAC0E6FF9FEC0FF06E
:1007F000E552E5520001600EA95D000EAA594BE3D7
:10080000D6C017F0186A196ADFC014F0E0C015F0FE
:10081000E1C016F03C0E0C6E0D6A0E6ADFC007F0E8
:10082000E0C008F0E1C009F0D3EC17F004C014F008
:1008300005C015F006C016F004C007F005C008F0AA
:1008400006C009F017C00CF018C00DF019C00EF06A
:1008500079EC17F007C0BBF008C0BCF00001DF6BFB
:10086000E06BE16BE8050EE1E6680BEC10F0E55299
:10087000F3CF14F0F4CF15F0F350F41003E10DD9D9
:100880000001E86BD3C0D1F0D4C0D2F00001D36B2B
:10089000D46BA96BAA6BA86B060EE15C02E2E16A5D
:1008A000E552E16EE552E7CFD9FF1200D9CFE6FF5E
:1008B000E1CFD9FF050EE126DF6A010EDB6A020EE9
:1008C000DB6A030EDB6A040EDB6ADF6A040EDF5CA0
:1008D00001E3B1D0FE0EDB50FF0807E0DF50F36EFE
:1008E000FE0EDB50F35C01E0A4D0EA6ADF34FE0BBD
:1008F000EA36E96EB30EE926000EEA22010EE92679
:10090000000EEA22EF5009E1010EDB6A020EDB6AFB
:10091000030EDB6A040EDB6A50D0EA6ADF34FE0B9A
:10092000EA36E96EB30EE926000EEA22EFCF18F0A0
:1009300018C009F0FEEC15F007C014F008C015F05F
:1009400009C016F00AC017F0EA6ADF34FE0BEA3677
:10095000E96EB30EE926000EEA22010EE926000E2A
:10096000EA22EFCF1DF01DC009F0FEEC15F007C024
:1009700019F008C01AF009C01BF00AC01CF007C02B
:100980000CF008C00DF009C00EF00AC00FF014C042
:1009900007F015C008F016C009F017C00AF0B9EC4E
:1009A00016F0010E07C0DBFF020E08C0DBFF030ECE
:1009B00009C0DBFF040E0AC0DBFFDF50030A2DE095
:1009C000010A1EE0030A0FE0010A33E1010EDBCF4A
:1009D00004F2020EDBCF05F2030EDBCF06F2040EAB
:1009E000DBCF07F226D0010EDBCF08F2020EDBCF01
:1009F00009F2030EDBCF0AF2040EDBCF0BF219D0A3
:100A0000010EDBCF0CF2020EDBCF0DF2030EDBCFBB
:100A10000EF2040EDBCF0FF20CD0010EDBCF00F292
:100A2000020EDBCF01F2030EDBCF02F2040EDBCFAE
:100A300003F2DF2A4BD7050EE15C02E2E16AE552E0
:100A4000E16EE552E7CFD9FF1200D9CFE6FFE1CF43
:100A5000D9FF030EE76EFD0EDBCF16F0E75016163A
:100A6000176A040ED8901636E804FCE10F0EBD1488
:100A70001610E850BD6EFD0EDBCF14F0FE0EDBCF7E
:100A800015F0D89015321432D89015321432145013
:100A9000BE6EE552E7CFD9FF1200D9CFE6FFE1CF16
:100AA000D9FFE652DF6A7D0EE66EE66A07EC1FF0BC
:100AB000E552E552B3C0E6FF010EE66E07EC1FF00B
:100AC000E552E552B4C0E6FF020EE66E07EC1FF0F9
:100AD000E552E552B5C0E6FF030EE66E07EC1FF0E7
:100AE000E552E552B6C0E6FF040EE66E07EC1FF0D5
:100AF000E552E552B7C0E6FF050EE66E07EC1FF0C3
:100B0000E552E552B8C0E6FF060EE66E07EC1FF0B0
:100B1000E552E552B9C0E6FF070EE66E07EC1FF09E
:100B2000E552E552BAC0E6FF080EE66E07EC1FF08C
:100B3000E552E552D6C0E6FF090EE66E07EC1FF05F
:100B4000E552E5520001C951DF6EDFCFE6FF0A0E24
:100B5000E66E07EC1FF0E552E552CAC014F0156AC4
:100B60001450DF6EDFCFE6FF0B0EE66E07EC1FF0D2
:100B7000E552E5520001CB51DF6EDFCFE6FF0C0EF0
:100B8000E66E07EC1FF0E552E552CCC014F0156A92
:100B90001450DF6EDFCFE6FF0D0EE66E07EC1FF0A0
:100BA000E552E552E552E552E7CFD9FF1200D9CF21
:100BB000E6FFE1CFD9FF020EE126DF6A010EDB6A14
:100BC000E66AF8EC1EF0E552E76E010EE7CFDBFFB8
:100BD000DB507D0876E1010EDF6EE66EF8EC1EF06C
:100BE000E5520001B36F020EE66EF8EC1EF0E5521E
:100BF0000001B46F030EE66EF8EC1EF0E552000142
:100C0000B56F040EE66EF8EC1EF0E5520001B66F0B
:100C1000050EE66EF8EC1EF0E5520001B76F060E09
:100C2000E66EF8EC1EF0E5520001B86F070EE66EB6
:100C3000F8EC1EF0E5520001B96F080EE66EF8EC14
:100C40001EF0E5520001BA6F090EE66EF8EC1EF0D8
:100C5000E5520001D66F0B0EE66EF8EC1EF0E55281
:100C6000146E156E146A14C0E6FFE66E0A0EE66E88
:100C7000F8EC1EF0E552E552E7CF15F0E552E7CF6C
:100C800014F000011410C96F15C0CAF00D0EE66E05
:100C9000F8EC1EF0E552146E156E146A14C0E6FFEF
:100CA000E66E0C0EE66EF8EC1EF0E552E552E7CF6C
:100CB00015F0E552E7CF14F000011410CB6F15C00A
:100CC000CCF0DF50146E020EE15C02E2E16AE55204
:100CD000E16E1450E552E7CFD9FF1200D9CFE6FFFD
:100CE000E1CFD9FF0A0EE126010EDF6EDB6A020EAC
:100CF000DB6A050EDB6A060EDB6A070EDB6A080E8E
:100D0000DB6A090EDB6AFE0EDB50030A01E150D1FB
:100D1000010A01E184D0020A01E0B8D10001E651E4
:100D2000E71101E0B3D1FD0EDB50020A51E0030AE6
:100D300027E0010A01E0AAD1D950FB0FE96EFF0EAE
:100D4000DA20EA6EFF0EEE1801E0A0D1FF0EED18DA
:100D500001E09CD1E66A0BEC10F0E552F4CF15F0FF
:100D6000020EF31801E1155001E190D10001CF51BD
:100D7000D924E96E000EDA20EA6EEFCFCFF086D1EB
:100D8000CF5101E183D10C6A0D6A0E6A0F6A10C25D
:100D900007F011C208F012C209F013C20AF052ECB7
:100DA00018F0010A01E172D1D9CF14F0DACF15F0B1
:100DB0008250100B01E0010E1424E96E000E152084
:100DC000EA6EEF50E8B08288E8B060D182985ED1D8
:100DD000CF5101E15BD1FB0EDBCF14F0FC0EDBCF7A
:100DE00015F00001800E151415E008680968FB0E67
:100DF000DBCF0DF0FC0EDBCF0EF0A6EC17F00650AB
:100E00000001E527D651D880E55501E33FD1010E19
:100E1000E56F3CD1E5C0E6F0E2C0B2F037D1FD0E9F
:100E2000DB407F0BE66ED950030FE96EDACFEAFFA5
:100E3000E552E750EE6EED6AFD0EDB50166E176A56
:100E4000020E086E096A030EDBCF0DF0040EDBCF35
:100E50000EF0A6EC17F00650165C146E07501758EB
:100E6000156E050E14C0DBFF060E15C0DBFF030E6A
:100E7000DBCF14F0040EDBCF15F0D8901436153606
:100E8000B30E1426000E1522050EDB501424E96E55
:100E9000060EDB501520EA6EFB0EDB50EF26030E2C
:100EA000DBCF15F0040EDBCF16F0D89015361636D2
:100EB000B30E1526000E1622050EDB501524E96E22
:100EC000060EDB501620EA6EEFCF14F0143418E350
:100ED000030EDBCF16F0040EDBCF17F0D8901636DA
:100EE0001736B30E1626000E1722050EDB501624F9
:100EF000E96E060EDB501720EA6EEF50640F39D012
:100F0000030EDBCF15F0040EDBCF16F0D8901536AC
:100F10001636B30E1526000E1622050EDB501524CC
:100F2000E96E060EDB501620EA6EEFCF14F0640E69
:100F3000E76E1418E8AE02D0143403D0E750D8801E
:100F4000145430E2030EDBCF16F0040EDBCF17F0A3
:100F5000D89016361736B30E1626000E1722050E39
:100F6000DB501624E96E060EDB501720EA6EEF50B8
:100F70009C0FE66E030EDBCF14F0040EDBCF15F0F2
:100F8000D89014361536B30E1426000E1522050E11
:100F9000DB501424E96E060EDB501520EA6EE55294
:100FA000E750EF6E030EDBCFE6FF80DCE5526BD03F
:100FB000FD0EDB50020A52E0030A27E0010A63E15A
:100FC000FB0EDBCF08F0FC0EDBCF09F00850000170
:100FD000C9270950CA23000EC95D000ECA5903E291
:100FE000C96BCA6B09D0FF0ED880C955010ECA550E
:100FF00003E2C969010ECA6FC9C014F2CAC015F272
:10100000C9C022F2CAC023F23ED0FB0EDBCF08F0EB
:10101000FC0EDBCF09F008500001CB270950CC2390
:10102000000ECB5D000ECC5903E2CB6BCC6B0AD02B
:10103000DC0ED880CB55050ECC5504E2DC0ECB6F10
:10104000050ECC6FBD51CB5DBE51CC591CE2CBC05F
:10105000BDF0CCC0BEF0EBEC01F015D0FB0EDB50C8
:101060000001D627010ED65D02E2010E0BD0D6514B
:10107000146E156A153407E21450C008000E15549A
:1010800002E2C00ED66F0001010EE86F0A0EE15CAD
:1010900002E2E16AE552E16EE552E7CFD9FF1200C4
:1010A000D9CFE6FFE1CFD9FF2B0EE126020EDB6A96
:1010B000030EDB6AD950040FE96EDACFEAFF4B0E5C
:1010C000EE6E700EEE6E200EEE6E280EEE6EEE6A76
:1010D000D950090FE96EDACFEAFF4B0EEE6E690EBA
:1010E000EE6E200EEE6E280EEE6EEE6AD9500E0FEA
:1010F000E96EDACFEAFF4B0EEE6E640EEE6E200E56
:10110000EE6E280EEE6EEE6AD950130FE96EDACF4E
:10111000EAFF460EEE6EEE6E200EEE6E280EEE6EBE
:10112000EE6AD950180FE96EDACFEAFFEE6A070EC1
:10113000EE6EEE6EEE6EEE6EEE6EEE6EEE6EEE6ECF
:10114000D950210FE96EDACFEAFFEE6A070EEE6E94
:10115000EE6EEE6EEE6EEE6EEE6EEE6EEE6E010EFC
:10116000F36E2A0EF3CFDBFFFA0EDBCFE9FFFB0EA7
:10117000DBCFEAFFEF6AF80EDBCFE9FFF90EDBCF3A
:10118000EAFFEF6AFE0EDB50030A02E1F8EF0DF012
:10119000010A02E11EEF0DF0030A01E17DD2010A0E
:1011A00002E0D7EF0EF0FD0EDB50020A01E1CBD1D9
:1011B000030A01E173D1010A02E0D7EF0EF0C60E77
:1011C000E66E3C0EE66EF80EDBCFE6FFF90EDBCFE7
:1011D000E6FF13EC13F0E552E552E552E552D95023
:1011E000180FE66E000EDA20E66EBDC0E6FFBEC048
:1011F000E6FF57EC1DF0E552E552E552E552F3CF1C
:1012000014F0F4CF15F0F3CFE6FFF4CFE6FFF80EBD
:10121000DBCFE6FFF90EDBCFE6FFB2EC12F0E552D2
:10122000E552E552E5520001CF5140E0020ECF5D9C
:1012300004E1BD0EE66E3C0E03D0B60EE66E3C0E2B
:10124000E66EFA0EDBCFE6FFFB0EDBCFE6FF13EC1C
:1012500013F0E552E552E552E552180EDB6AAE0E88
:10126000E66E3C0EE66ED950180FE66E000EDA20E0
:10127000E66E13EC13F0E552E552E552E552FC0E32
:10128000DBCFE6FFD950180FE66E000EDA20E66ECF
:10129000F80EDBCFE6FFF90EDBCFE6FF24EC12F011
:1012A000146E050EE15E1450D7EF0EF0A80EE66E38
:1012B0003C0EE66EFA0EDBCFE6FFFB0EDBCFE6FF61
:1012C00013EC13F0E552E552E552E552D950180FF0
:1012D000E66E000EDA20E66EBBC0E6FFBCC0E6FF9D
:1012E00057EC1DF0E552E552E552E552F3CF14F00C
:1012F000F4CF15F0F3CFE6FFF4CFE6FFFA0EDBCF25
:10130000E6FFFB0EDBCFE6FFB2EC12F0E552E55252
:10131000E552E552180EDB6AA10EE66E3C0EE66E53
:10132000D950180FE66E000EDA20E66E13EC13F0BB
:10133000E552E552E552E552D950210FE66E000E16
:10134000DA20E66E010EE66E1A6A1B6AC80E1C6E83
:10135000420E1D6E0C6A800E0D6E0E68430E0F6EEF
:1013600010C207F011C208F012C209F013C20AF04D
:10137000B9EC16F007C01EF008C01FF009C020F03D
:101380000AC021F007C00CF008C00DF009C00EF033
:101390000AC00FF01AC007F01BC008F01CC009F00B
:1013A0001DC00AF00CEC17F007C016F008C017F0CB
:1013B00009C018F00AC019F007C0E6FF08C0E6FF30
:1013C00009C0E6FF0AC0E6FF76EC13F0226E070EB6
:1013D000E15E2250F3CF14F0F4CF15F0F3CFE6FF27
:1013E000F4CFE6FFD950180FE66E000EDA20E66E55
:1013F000B2EC12F0E552E552E552E5529F0EE66E70
:101400003C0EE66ED950180FE66E000EDA20E66E3E
:1014100013EC13F0E552E552E552E552FC0EDBCF3A
:10142000E6FFD950180FE66E000EDA20E66EFA0ECF
:10143000DBCFE6FFFB0EDBCFE6FF24EC12F0146EF1
:10144000050EE15E1450180EDB6A980EE66E3C0E37
:10145000E66ED950180FE66E000EDA20E66E13EC39
:1014600013F0E552E552E552E552FC0EDBCFE6FF04
:10147000D950180FE66E000EDA20E66EF80EDBCFBC
:10148000E6FFF90EDBCFE6FF24EC12F0146E050E3A
:10149000E15E14502A0EDB6AD7EF0EF082B828D036
:1014A0008A0EE66E3C0EE66EFA0EDBCFE6FFFB0E12
:1014B000DBCFE6FF13EC13F0E552E552E552E552BF
:1014C0000001CF513CE00C6A0D6A0E6A0F6A10C22F
:1014D00007F011C208F012C209F013C20AF052EC70
:1014E00018F0010A2CE0830EE66E3C0E7EEF0EF043
:1014F0005D0EE66E3C0EE66EFA0EDBCFE6FFFB0EEF
:10150000DBCFE6FF13EC13F0E552E552E552E5526E
:101510000001CF5114E00C6A0D6A0E6A0F6A10C206
:1015200007F011C208F012C209F013C20AF052EC1F
:1015300018F0010A04E0560EE66E3C0EDFD36A0E88
:10154000E66E3C0EDBD34E0EE66E3C0EE66EFA0EF9
:10155000DBCFE6FFFB0EDBCFE6FF13EC13F0E5522B
:10156000E552E552E5520001E65135E0440EE66EE3
:101570003C0EE66EF80EDBCFE6FFF90EDBCFE6FFA2
:1015800013EC13F0E552E552E552E552D950180F2D
:10159000E66E000EDA20E66E0001E651E66EE66ABF
:1015A00057EC1DF0E552E552E552E552F3CF14F049
:1015B000F4CF15F0F3CFE6FFF4CFE6FFF80EDBCF64
:1015C000E6FFF90EDBCFE6FFB2EC12F0E552E55292
:1015D000E552E5525BD03E0EE66E3C0EE66EF80E2E
:1015E000DBCFE6FFF90EDBCFE6FF13EC13F0E5529D
:1015F000E552E552E552D950180FE66E000EDA209A
:10160000E66E0001E551E66EE66A57EC1DF0E55224
:10161000E552E552E552F3CF14F0F4CF15F0F3CFD5
:10162000E6FFF4CFE6FFF80EDBCFE6FFF90EDBCFE7
:10163000E6FFB2EC12F0E552E552E552E552180E23
:10164000DB6A390EE66E3C0EE66ED950180FE66E78
:10165000000EDA20E66E13EC13F0E552E552E55287
:10166000E552FC0EDBCFE6FFD950180FE66E000EF8
:10167000DA20E66EF80EDBCFE6FFF90EDBCFE6FFF1
:1016800024EC12F0146E050EE15E1450010EF36EA0
:101690002A0EF3CFDBFF8BD3FD0EDB50020A01E1F4
:1016A0005BD1030A6EE0010A01E081D3340EE66EDD
:1016B0003C0EE66EFA0EDBCFE6FFFB0EDBCFE6FF5D
:1016C00013EC13F0E552E552E552E552D950180FEC
:1016D000E66E000EDA20E66EC3C007F0C4C008F064
:1016E000C5C009F0C6C00AF01CEC18F008C016F01E
:1016F00009C017F008C0E6FF09C0E6FF57EC1DF06F
:10170000E552E552E552E552F3CF14F0F4CF15F06F
:10171000F3CFE6FFF4CFE6FFFA0EDBCFE6FFFB0EDA
:10172000DBCFE6FFB2EC12F0E552E552E552E552AE
:101730002F0EE66E3C0EE66EF80EDBCFE6FFF90EDE
:10174000DBCFE6FF13EC13F0E552E552E552E5522C
:10175000D950180FE66E000EDA20E66E16C207F0BA
:1017600017C208F018C209F019C20AF01CEC18F0F0
:1017700008C016F009C017F008C0E6FF09C0E6FF70
:10178000FCD2290EE66E3C0EE66EFA0EDBCFE6FFCB
:10179000FB0EDBCFE6FF13EC13F0E552E552E5520A
:1017A000E552D950180FE66E000EDA20E66E010EF3
:1017B000E66E1A6A1B6AC80E1C6E420E1D6E0C6A1B
:1017C000800E0D6E0E68430E0F6E10C207F011C230
:1017D00008F012C209F013C20AF0B9EC16F007C003
:1017E0001EF008C01FF009C020F00AC021F007C099
:1017F0000CF008C00DF009C00EF00AC00FF01AC0BE
:1018000007F01BC008F01CC009F01DC00AF00CEC6A
:1018100017F007C016F008C017F009C018F00AC08A
:1018200019F007C0E6FF08C0E6FF09C0E6FF0AC0DE
:10183000E6FF76EC13F0226E070EE15E2250F3CF46
:1018400014F0F4CF15F0F3CFE6FFF4CFE6FFF80E77
:10185000DBCFE6FFF90EDBCFE6FFB2EC12F0E5528C
:10186000E552E552E552250EE66E3C0EE66EF80EA8
:10187000DBCFE6FFF90EDBCFE6FF13EC13F0E5520A
:10188000E552E552E552D950180FE66E000EDA2007
:10189000E66E10C207F011C208F012C209F013C2BE
:1018A0000AF01CEC18F008C016F009C017F008C0C8
:1018B000E6FF09C0E6FF57EC1DF0E552E552E552A0
:1018C000E552F3CF14F0F4CF15F0F3CFE6FFF4CFE9
:1018D000E6FFF80EDBCFE6FFF90EDBCFE6FFB2EC5A
:1018E00012F0E552E552E552E552230EE66E3C0E4B
:1018F000E66EF80EDBCFE6FFF90EDBCFE6FF13EC6A
:1019000013F0E552E552E552E552D950180FE66E54
:10191000000EDA20E66EE668010EE66E57EC1DF06A
:10192000E552E552E552E552F3CF14F0F4CF15F04D
:10193000F3CFE6FFF4CFE6FFF80EDBCFE6FFF90EBC
:10194000DBCFE6FFB2EC12F0E552E552E552E5528C
:10195000210EE66E3C0ED2D11C0EE66E3C0EE66EFB
:10196000FA0EDBCFE6FFFB0EDBCFE6FF13EC13F046
:10197000E552E552E552E552D950180FE66E000ED9
:10198000DA20E66E010EE66ED7C0E6FFD8C0E6FFAD
:10199000D9C0E6FFDAC0E6FF76EC13F0166E070E4C
:1019A000E15E1650F3CF14F0F4CF15F0F3CFE6FF5D
:1019B000F4CFE6FFFA0EDBCFE6FFFB0EDBCFE6FF50
:1019C000B2EC12F0E552E552E552E552170EE66E22
:1019D0003C0EE66EF80EDBCFE6FFF90EDBCFE6FF3E
:1019E00013EC13F0E552E552E552E552D950180FC9
:1019F000E66E000EDA20E66EDFC0E6FFE0C0E6FF2E
:101A000057EC1DF0E552E552E552E552F3CF14F0E4
:101A1000F4CF15F0F3CFE6FFF4CFE6FFF80EDBCFFF
:101A2000E6FFF90EDBCFE6FFB2EC12F0E552E5522D
:101A3000E552E552140EE66E3C0E60D1FD0EDB4021
:101A40007F0BDE6EDD6AFD0EDB50166E176A020E2E
:101A5000086E096ADECF0DF0DDCF0EF0A6EC17F0B0
:101A60000650165C146E07501758156E020E14C0FF
:101A7000DBFF030E15C0DBFFD950040F166EDACF63
:101A800017F0050E086E096ADECF0DF0DDCF0EF0FF
:101A9000A6EC17F016500624146E17500720156E8A
:101AA00014C0E6FFE66EFA0EDBCFE6FFFB0EDBCFDF
:101AB000E6FFB2EC12F0E552E552E552E552D9509C
:101AC000180FE66E000EDA20E66E020EDBCFE6FFA0
:101AD000030EDBCFE6FF57EC1DF0E552E552E55271
:101AE000E552F3CF14F0F4CF15F0F3CFE6FFF4CFC7
:101AF000E6FFFA0EDBCFE6FFFB0EDBCFE6FFB2EC34
:101B000012F0E552E552E552E552210EE66E3C0E2A
:101B1000E66EFA0EDBCFE6FFFB0EDBCFE6FF13EC43
:101B200013F0E552E552E552E552D950180FE66E32
:101B3000000EDA20E66EDECFE9FFDDCFEAFFD890B7
:101B4000E936EA36B30EE926000EEA22EFCF16F0A8
:101B5000176A16BE176816C0E6FF17C0E6FF57ECF7
:101B60001DF0E552E552E552E552F3CF14F0F4CF03
:101B700015F0F3CFE6FFF4CFE6FFF80EDBCFE6FF7C
:101B8000F90EDBCFE6FFB2EC12F0E552E552E5527A
:101B9000E552230EE66E3C0EE66EF80EDBCFE6FF56
:101BA000F90EDBCFE6FF13EC13F0E552E552E552F8
:101BB000E552D950180FE66E000EDA20E66EDECF41
:101BC000E9FFDDCFEAFFD890E936EA36B30EE92621
:101BD000000EEA22010EE926000EEA22EFCF16F0EF
:101BE000176A16BE176816C0E6FF17C0E6FFC5D015
:101BF000FD0EDB50020A01E1A6D0030A01E188D004
:101C0000010A01E0D4D00B0EE66E3C0EE66EFA0E31
:101C1000DBCFE6FFFB0EDBCFE6FF13EC13F0E55264
:101C2000E552E552E552D950180FE66E000EDA2063
:101C3000E66E010EE66E1A6A1B6AC80E1C6E420E34
:101C40001D6EC9C008F0CAC009F00DEC16F007C03F
:101C500022F008C023F009C024F00AC025F00C6A65
:101C6000800E0D6E0E68430E0F6EB9EC16F007C0B5
:101C70001EF008C01FF009C020F00AC021F007C004
:101C80000CF008C00DF009C00EF00AC00FF01AC029
:101C900007F01BC008F01CC009F01DC00AF00CECD6
:101CA00017F007C016F008C017F009C018F00AC0F6
:101CB00019F007C0E6FF08C0E6FF09C0E6FF0AC04A
:101CC000E6FF76EC13F0266E070EE15E2650F3CFAA
:101CD00014F0F4CF15F0F3CFE6FFF4CFE6FFF80EE3
:101CE000DBCFE6FFF90EDBCFE6FFB2EC12F0E552F8
:101CF000E552E552E5529F0EE66E3C0EE66EF80E9A
:101D0000DBCFE6FFF90EDBCFE6FF13EC13F04BD091
:101D1000030EE66E3C0EE66EFA0EDBCFE6FFFB0E20
:101D2000DBCFE6FF13EC13F0E552E552E552E55246
:101D3000D950180FE66E000EDA20E66ECBC0E6FF33
:101D4000CCC0E6FF1AD0F30EE66E3B0EE66EFA0E3E
:101D5000DBCFE6FFFB0EDBCFE6FF13EC13F0E55223
:101D6000E552E552E552D950180FE66E000EDA2022
:101D7000E66E0001D651E66EE66A57EC1DF0E552BC
:101D8000E552E552E552F3CF14F0F4CF15F0F3CF5E
:101D9000E6FFF4CFE6FFF80EDBCFE6FFF90EDBCF70
:101DA000E6FFB2EC12F0E552E552E552E552180EAC
:101DB000DB6AE66A0BEC10F0E552F3CF14F0F4CFD7
:101DC00015F0020EF31806E1155004E1EF0EE66E71
:101DD0003B0E2DD0010EE66E0BEC10F0E552F3CF6A
:101DE00014F0F4CF15F0020EF31806E1155004E1DB
:101DF000EB0EE66E3B0E1BD0020EE66E0BEC10F007
:101E0000E552F3CF14F0F4CF15F0020EF31806E10B
:101E1000155004E1E70EE66E3B0E09D00001CF51EC
:101E200028E1D151D21125E0E20EE66E3B0EE66EBE
:101E3000D950180FE66E000EDA20E66E13EC13F0A0
:101E4000E552E552E552E552FC0EDBCFE6FFD950F4
:101E5000180FE66E000EDA20E66EF80EDBCFE6FF16
:101E6000F90EDBCFE6FF24EC12F0146E050EE15EF6
:101E700014502A0EDB044BE1180EDB6AA80EE66E46
:101E80003C0EE66ED950180FE66E000EDA20E66EB4
:101E900013EC13F0E552E552E552E552D950210F0B
:101EA000E66E000EDA20E66EBBC0E6FFBCC0E6FFC1
:101EB00057EC1DF0E552E552E552E552F3CF14F030
:101EC000F4CF15F0F3CFE6FFF4CFE6FFD950180FAB
:101ED000E66E000EDA20E66EB2EC12F0E552E55244
:101EE000E552E552FC0EDBCFE6FFD950180FE66E47
:101EF000000EDA20E66EFA0EDBCFE6FFFB0EDBCF3C
:101F0000E6FF24EC12F0146E050EE15E14502B0E69
:101F1000E15C02E2E16AE552E16EE552E7CFD9FF0A
:021F20001200AD
:0E1F2200D9CFE6FFE1CFD9FFFE0EDBCF92F064
:101F3000FD0EDBCF93F0E552E7CFD9FF1200D9CFEA
:101F4000E6FFE1CFD9FF00019551961113E095C04E
:101F5000E6FF96C0E6FF93C0E6FF92C0E6FF6EEC98
:101F600006F0E552E552E552E5520001956B966B9D
:101F7000010E946FFD0EDBCF14F0FE0E0001156A0A
:101F80000F0E14161450151004E1CBD80001010EE9
:101F9000946F0001945118E0790EE66E000EE66E23
:101FA000600EE66E000EE66E180EE66E93C0E6FF5B
:101FB00092C0E6FF50EC08F0146E070EE15E14507C
:101FC0000001946B010EA66FA65101E01CDAE552E8
:101FD000E7CFD9FF120010EC1DF079EC1CF0E30EF6
:101FE000E66E3C0EE66E600EE66E000EE66E1BDBE5
:101FF000E552E552E552E552CC0EE66E3C0EE66E39
:10200000790EE66E000EE66E0EDBE552E552E55205
:10201000E55203EF12F0D9CFE6FFE1CFD9FF020E70
:10202000E126DF6AFE0EDB50FF0829E1010EDB6AC4
:10203000DBCF14F0030EE76E1418E8AE02D0E734DD
:1020400002D0E750145C57E2010EDBCFE9FFEA6AE9
:10205000E9BEEA68030EEA02F3CFEAFFE902F3CF32
:10206000E9FFF450EA26970EE926000EEA22EF5027
:1020700003E0010EDF6E3FD0010EDB2AD9D7FE0E42
:10208000DBCFE9FFEA6AE9BEEA68030EEA02F3CFB2
:10209000EAFFE902F3CFE9FFF450EA26970EE926BA
:1020A000000EEA22EF5027E0FE0EDBCFE9FFEA6ADE
:1020B000E9BEEA68030EEA02F3CFEAFFE902F3CFD2
:1020C000E9FFF450EA26970EE926000EEA22020EF6
:1020D000E926000EEA22EFCF14F0040EE76E141882
:1020E000E8AE02D0E73402D0E750145C02E2010E01
:1020F00001D0020EDF6EDFCF14F0156A14BE156832
:1021000014C0F3FF15C0F4FF020EE15C02E2E16AC5
:10211000E552E16EE552E7CFD9FF12000001A1516F
:102120001200D9CFE6FFE1CFD9FF020EE126DE6A29
:10213000DD6ADECF14F0DDCF15F0D890155004E63F
:10214000030E145C000E155801E385D0DECFE9FFC5
:10215000DDCFEAFF030EEA02F3CFEAFFE902F3CF95
:10216000E9FFF450EA26970EE926000EEA22EF0472
:102170006CE1DECFE9FFDDCFEAFF030EEA02F3CF29
:10218000EAFFE902F3CFE9FFF450EA26970EE926C9
:10219000000EEA22020EE926000EEA22EFCF14F02A
:1021A000040EE76E1418E8AE02D0E73402D0E75010
:1021B000145C17E2DECFE9FFDDCFEAFF030EEA028F
:1021C000F3CFEAFFE902F3CFE9FFF450EA26970ED6
:1021D000E926000EEA22020EE926000EEA22EF2A84
:1021E00034D0DECFE9FFDDCFEAFF030EEA02F3CF02
:1021F000EAFFE902F3CFE9FFF450EA26970EE92659
:10220000000EEA22010EE926000EEA22EF501DE040
:10221000DECFE9FFDDCFEAFF030EEA02F3CFEAFFEC
:10222000E902F3CFE9FFF450EA26970EE926000E03
:10223000EA22010EE926000EEA22EF500A0DF3CF42
:1022400095F00001966B95BF9669DF2A010E01E2B9
:1022500070D7DB2A6ED7020EE15C02E2E16AE5523A
:10226000E16EE552E7CFD9FF1200D9CFE6FFE1CF0B
:10227000D9FF020EE126DE6ADD6AFD0EDB042DE1E8
:10228000FE0EDB50030DF3CFE9FFF4CFEAFF970E0C
:10229000E926000EEA22020EE926000EEA22EFCF1E
:1022A00014F0040EE76E1418E8AE02D0E73402D042
:1022B000E750145C02E2010E01D0020EDE6EDD6A10
:1022C000FE0EDB50030DF3CFE9FFF4CFEAFF970ECC
:1022D000E926000EEA22EF6A0DD0FE0EDB50030D58
:1022E000F3CFE9FFF4CFEAFF970EE926000EEA22CA
:1022F000010EEF6EFE0EDB50030DF3CFE9FFF4CFBE
:10230000EAFF970EE926000EEA22020EE926000EE9
:10231000EA22EF6AFE0EDB50030DF3CFE9FFF4CFA4
:10232000EAFF970EE926000EEA22010EE926000ECA
:10233000EA22EF50E66EDFCFE6FFFE0EDBCFE6FFD0
:1023400015D8E552E552E552DECF14F0DDCF15F099
:1023500014C0F3FF15C0F4FF020EE15C02E2E16A73
:10236000E552E16EE552E7CFD9FF1200D9CFE6FF83
:10237000E1CFD9FFE652DF6AFE0EDB0413E1FD0E6A
:10238000DB0439E10001932B92C0E9FFEA6AE9BE60
:10239000EA68A20EE926000EEA22EF50D880935593
:1023A0002AE21CD0FD0EDB0426E1010EE66E33DED0
:1023B000E552F350DF6E020EDF5C12E1FC0EDBCF64
:1023C000A1F0DB5000019227923503E3A0C092F008
:1023D00005D0A051D880925501E2926B936B0BD03F
:1023E000FC0EDBCF14F0156A14BE15681450000102
:1023F0009527155096230001010E946FE552E55282
:10240000E7CFD9FF1200E66AD4EC1CF0E552200EAB
:10241000E66E600EE66E000EE66E84EC1CF0E55291
:10242000E552E552E66AE3EC1CF0E552200EE66E5A
:10243000790EE66E000EE66E84EC1CF0E552E55275
:10244000E5520001A66B1200D9CFE6FFE1CFD9FF1C
:10245000030EE126DF6A010EDB6A020EDB6ADB5047
:10246000E76EFB0EDBCFE9FFFC0EDBCFEAFFE750A8
:10247000E926000EEA22EF5003E0020EDB2AEFD736
:10248000DF6AFA0EDB50DF5C24E2DF50E76EFD0E00
:10249000DBCFE9FFFE0EDBCFEAFFE750E926000EB7
:1024A000EA22EF5003E1DE52010EDD6E010EDB0485
:1024B0000EE1DF50E76EFD0EDBCFE9FFFE0EDBCF56
:1024C000EAFFE750E926000EEA22200EEF6EDF2A2F
:1024D000D8D7DF6A020EDB50DF5C2CE2FA0EDBCFCE
:1024E000E6FF020EDB50E552E75CDF24E76E010EEB
:1024F000E7CFDBFFDF50E76EFB0EDBCFE9FFFC0E23
:10250000DBCFEAFFE750E926000EEA22EF50E66E45
:10251000010EDB50E76EFD0EDBCFE9FFFE0EDBCFD9
:10252000EAFFE750E926000EEA22E552E750EF6E97
:10253000DF2AD0D7FA0EDB50E76EFD0EDBCFE9FFC6
:10254000FE0EDBCFEAFFE750E926000EEA22EF6A33
:10255000030EE15C02E2E16AE552E16EE552E7CF8B
:10256000D9FF1200D9CFE6FFE1CFD9FF020EE12655
:10257000DF6A010EDB6ADF50E76EFD0EDBCFE9FF9D
:10258000FE0EDBCFEAFFE750E926000EEA22EF500D
:1025900002E0DF2AF0D7010EDB50E76EFB0EDBCF47
:1025A000E9FFFC0EDBCFEAFFE750E926000EEA2246
:1025B000EF5022E0010EDB50E76EFB0EDBCFE9FFB0
:1025C000FC0EDBCFEAFFE750E926000EEA22EF50CF
:1025D000E66EDF50E76EFD0EDBCFE9FFFE0EDBCFD0
:1025E000EAFFE750E926000EEA22E552E750EF6ED7
:1025F000DF2A010EDB2ACFD7DF50E76EFD0EDBCFDF
:10260000E9FFFE0EDBCFEAFFE750E926000EEA22E3
:10261000EF6A020EE15C02E2E16AE552E16EE55228
:10262000E7CFD9FF1200D9CFE6FFE1CFD9FF020EE5
:10263000E126DF6A010EDB6ADF50E76EFD0EDBCFBD
:10264000E9FFFE0EDBCFEAFFE750E926000EEA22A3
:10265000EF5002E0DF2AF0D7010EDB50E76EFB0EF1
:10266000DBCFF6FFFC0EDBCFF7FFE750F626000EC0
:10267000F7220800F55023E0010EDB50E76EFB0E59
:10268000DBCFF6FFFC0EDBCFF7FFE750F626000EA0
:10269000F7220800F550E66EDF50E76EFD0EDBCF47
:1026A000E9FFFE0EDBCFEAFFE750E926000EEA2243
:1026B000E552E750EF6EDF2A010EDB2ACDD7DF505F
:1026C000E76EFD0EDBCFE9FFFE0EDBCFEAFFE75042
:1026D000E926000EEA22EF6A020EE15C02E2E16AFC
:1026E000E552E16EE552E7CFD9FF1200D9CFE6FF00
:1026F000E1CFD9FF100EE126040EDB6A050EDB6A7E
:10270000060EDB6A070EDB6A080EDB6A090EDB6A5F
:102710000E0EDB6A0F0EDB6A0E0EDBCF14F0156AAD
:1027200014BE1568F80EDB501424E96EF90EDB5068
:102730001520EA6EEF6AFB0EDBCF14F0FC0EDBCF48
:1027400015F0FD0EDBCF16F0FE0EDBCF17F00C6A96
:102750000D6A0E6A0F6A14C007F015C008F016C0A3
:1027600009F017C00AF05BEC18F0010A3AE1FB0E21
:10277000DBCF14F0FC0EDBCF15F0FD0EDBCF16F037
:10278000FE0EDBCF17F00C6A0D6A800E0E6EBF0EC8
:102790000F6E14C007F015C008F016C009F017C07E
:1027A0000AF00CEC17F0FB0E07C0DBFFFC0E08C0B4
:1027B000DBFFFD0E09C0DBFFFE0E0AC0DBFF0E0EC5
:1027C000DBCF14F0156A14BE1568F80EDB50142424
:1027D000E96EF90EDB501520EA6E2D0EEF6E0E0E2F
:1027E000DB2AD9CFE9FFDACFEAFFFB0EDBCFEEFF22
:1027F000FC0EDBCFEEFFFD0EDBCFEEFFFE0EDBCFE0
:10280000EEFFD9CFE9FFDACFEAFFEECF14F0EECF3B
:1028100015F0EECF16F0EFCF17F00C6A0D6A800EB0
:102820000E6E3F0E0F6E14C007F015C008F016C0F4
:1028300009F017C00AF05BEC18F0010A4AE0D9CFA2
:10284000E9FFDACFEAFFEECF14F0EECF15F0EECFCE
:1028500016F0EFCF17F00C6A0D6A200E0E6E410EC7
:102860000F6E14C007F015C008F016C009F017C0AD
:102870000AF0B9EC16F007C0DEFF08C0DEFF09C0A1
:10288000DEFF0AC0DDFFDD52DD52D9CFE9FFDACF2E
:10289000EAFFEECF14F0EECF15F0EECF16F0EFCF4B
:1028A00017F00C6A0D6A800E0E6E3F0E0F6E14C08C
:1028B00007F015C008F016C009F017C00AF05BEC6D
:1028C00018F0010A9EE0080EDB2A090E9AE3DB2AC3
:1028D00098D7FA0EDBCF14F0143401E36AD1040E5A
:1028E000DB6A050EDB6A800EF36E060EF3CFDBFFAC
:1028F0003F0EF36E070EF3CFDBFF080EDBCF14F0B5
:10290000090EDBCF15F00001800E151449E1080E09
:10291000DBCF08F0090EDBCF09F00C0E08C0DBFF9F
:102920000D0E09C0DBFF0C0EDBCF14F00D0EDBCF5C
:1029300015F0153401E37FD014500008000E155433
:1029400001E379D0040EDBCF14F0050EDBCF15F0D8
:10295000060EDBCF16F0070EDBCF17F00C6A0D6A00
:10296000200E0E6E410E0F6E14C007F015C008F059
:1029700016C009F017C00AF00CEC17F0040E07C0DF
:10298000DBFF050E08C0DBFF060E09C0DBFF070EEC
:102990000AC0DBFF0C0EDB060D0EC5E2DB06C3D75B
:1029A00008680968080EDBCF0DF0090EDBCF0EF0CA
:1029B000A6EC17F00C0E06C0DBFF0D0E07C0DBFF08
:1029C0000C0EDBCF14F00D0EDBCF15F0153433E217
:1029D00014500008000E15542EE2040EDBCF14F044
:1029E000050EDBCF15F0060EDBCF16F0070EDBCFA2
:1029F00017F00C6A0D6A200E0E6E410E0F6E14C099
:102A000007F015C008F016C009F017C00AF0B9ECBD
:102A100016F0040E07C0DBFF050E08C0DBFF060E34
:102A200009C0DBFF070E0AC0DBFF0C0EDB060D0E34
:102A3000C7E2DB06C5D7FB0EDBCF07F0FC0EDBCF12
:102A400008F0FD0EDBCF09F0FE0EDBCF0AF0040E1E
:102A5000DBCF0CF0050EDBCF0DF0060EDBCF0EF05A
:102A6000070EDBCF0FF0B9EC16F007C014F008C06A
:102A700015F009C016F00AC017F01CEC18F00A0E89
:102A800008C0DBFF0B0E09C0DBFF0A0EDBCF08F02E
:102A90000B0EDBCF09F00FEC16F0040EDBCF0CF0C1
:102AA000050EDBCF0DF0060EDBCF0EF0070EDBCFF1
:102AB0000FF00CEC17F007C014F008C015F009C0B7
:102AC00016F00AC017F0D950FB0FE96EFF0EDA209E
:102AD000EA6EEECF07F0EECF08F0EECF09F0EFCFC1
:102AE0000AF014C00CF015C00DF016C00EF017C09F
:102AF0000FF022EC16F00AC0EDFF09C0EDFF08C090
:102B0000EDFF07C0EFFF0A0EDBCF16F00B0EDBCF99
:102B100017F0300E1626000E17220E0EDBCF14F023
:102B2000156A14BE1568F80EDB501424E96EF90E10
:102B3000DB501520EA6E16C0EFFF0E0EDB2AD950CF
:102B4000080FE96EDACFEAFFEE50ED1026E1FA0E3B
:102B5000DBCF14F0000EE76E1418E8AE02D0143488
:102B600003D0E750D880145412E20E0EDBCF14F0DD
:102B7000156A14BE1568F80EDB501424E96EF90EC0
:102B8000DB501520EA6E2E0EEF6E0E0EDB2A010EC4
:102B9000F36E0F0EF3CFDBFF03D00F0EDB0402E169
:102BA000FA0EDB06080EDB06090E01E392D6DB0601
:102BB00090D60E0EDBCF14F0156A14BE1568F80E11
:102BC000DB501424E96EF90EDB501520EA6EEF6A33
:102BD000F80EDBCF14F0F90EDBCF15F014C0F3FFC5
:102BE00015C0F4FF100EE15C02E2E16AE552E16E0D
:082BF000E552E7CFD9FF120006
:082BF800019E05D0019E09AE0B
:102C000002D0096C018E09C003F0026A136A126ACD
:102C1000860E046E056AD5EF18F0019E08D0019E5D
:102C200009AE05D0086C091EE86A0922018E09C0A8
:102C300003F008C002F0136A126A8E0E046E056A71
:102C4000D5EF18F00F7E016A11EC19F029EC19F09C
:102C500001B6B9EF18F001A20AD001AA03D001BE53
:102C6000B9EF18F001A4C5EF18F0C2EF18F001AAEF
:102C700005D001ACC5EF18F0C2EF18F001A00AD0E2
:102C800001A808D001BE04D001A402D0CEEF18F0F4
:102C9000D2EF18F0126A056A0F500A5C116E10E349
:102CA00007C013F008C002F009C003F00AC010F01A
:102CB0000CC007F00DC008F00EC009F0013A09D0B1
:102CC0000CC013F00DC002F00EC003F00FC010F0E6
:102CD000116C019E01BC018E10C004F001B001EF27
:102CE00019F01A0E116001EF19F0046A0A6A01A4C2
:102CF00008D0076C081E091E0A1EE86A082209226D
:102D00000A2201AC08D0136C021E031E041EE86ADE
:102D1000022203220422066A115207E00A34093211
:102D2000083207320632112EF9D707501326085001
:102D30000222095003220A50042206C012F0019E0A
:102D400004AE0BD0126C131E021E031E041EE86A92
:102D50001322022203220422018E04A006D0D8806E
:102D60000332023213321232102A10C004F0D5EFAF
:102D700018F0016A11EC19F029EC19F001B6B9EF5D
:102D800018F001A205D001BAB9EF18F0C0EF18F0A1
:102D900001BACCEF18F001A005D001B8B9EF18F0D6
:102DA000CCEF18F001B8C0EF18F0056A7F0E0A24C6
:102DB000046EE86A05220F50045EE86A055A1A0E8E
:102DC000106E0A6A126A136A026A036A0C50075E7E
:102DD0000D50085A0E50095A000E0A5A09E70C50B5
:102DE00007260D5008220E500922000E0A2201D09B
:102DF000128AD8900736083609360A36D890123625
:102E0000133602360336102EE1D70950081007108A
:102E1000D8A4128AD5EF18F0016A11EC19F029EC48
:102E200019F001B6B9EF18F001A205D001B8B9EF59
:102E300018F0C0EF18F001AA05D001B0B9EF18F0F2
:102E4000C0EF18F001B002D001A802D0CCEF18F00A
:102E5000056A0F500A24046EE86A05227E0E045E9D
:102E6000E86A055A126A136A026A036A0E50090276
:102E7000F4CF03F0F3CF02F00D500902F350132604
:102E8000F4500222000E03220E500802F3501326C3
:102E9000F4500222000E03220C500902F3501226B5
:102EA000F4501322000E022203220D500802F350A8
:102EB0001226F4501322000E022203220E500702A3
:102EC000F3501226F4501322000E022203220C505B
:102ED0000802F4501226000E1322022203220D5083
:102EE0000702F4501226000E132202220322D5EF0D
:102EF00018F0006A0EAE84EF17F00C6C0D1E0E1E5B
:102F0000E86A0D220E22001E09AE8EEF17F0076C44
:102F1000081E091EE86A08220922001E22EC1FF082
:102F200009BEA1EF17F000AE000C076C081E091EC9
:102F3000E86A08220922036C041E051E04220522E9
:102F4000000C00BE95EF17F00188FF0C09C013F0CC
:102F500008C012F008500D02F4CF07F0F3CF06F0CE
:102F600009500E02F4CF09F0F3CF08F00D02F35030
:102F70000726F4500822E86A092212500E02F35084
:102F80000726F4500822E86A09220EAECCEF17F0AB
:102F90001250085E1350095A13AE000C0D50085E13
:102FA0000E50095A000C09C013F008C012F007C0F7
:102FB00011F007500C02F4CF05F0F3CF04F00850E5
:102FC0000D02F4CF07F0F3CF06F00C02F350052604
:102FD000F4500622E86A072211500D02F35005262C
:102FE000F4500622E86A072209500C02F350062624
:102FF000F450072209500D02086AE86A0822F350CB
:103000000726F450082211500E02F3500626F45001
:103010000722096AE86A0822092212500E02F350B8
:103020000726F4500822E86A092213500E02F350D2
:103030000826F4500922000C016A11EC19F001B6BF
:1030400026EF18F001A20ED001B405D07F0E096E54
:10305000FF0E086E1FD0800E096E086A1BD0096A29
:10306000086A18D001B0FBD78F0E0A60EDD77E0E2C
:103070000A64F5D78E0E0A5C05E0D8900932083252
:103080000A2AF8D701A406D0086C091EE86A0922AA
:1030900009AEE5D7120064EC18F001B6000C01B0DF
:1030A000010C000C64EC18F001B6000C01B0000C2F
:1030B00001B4000C010C64EC18F001B6000C01B076
:1030C000000C01A4000C010C016A11EC19F029ECB0
:1030D00019F001B6120001AE08D001A004D001A879
:1030E00002D001801200019012000F500A5C0BE127
:1030F0000E50095C08E10D50085C05E10C50075CBE
:1031000002E101801200D8A002D0018E10D00A5036
:103110000FC00AF00F6E09500EC009F00E6E085075
:103120000DC008F00D6E07500CC007F00C6E0F506C
:103130000A5C10E0FF0F09E0019001B403D001AE7A
:103140000184120001AE019412000F2AD8900E32B1
:103150000D320C320C50075E0D50085A0E50095AB1
:1031600009BEEAD7D8900736083609360A2EF8D7AE
:10317000C8D77F0E0A6EFF0E096E086E076E12002A
:103180007F0E01BEFF0E0A6E02D07F0E0A6E800E09
:10319000096E086A076AF3D701AE04D0800E0A6E82
:1031A000096AF7D70A6A096AF4D7035002101310A4
:1031B0001210F8E005BEF0D703BE0CD00450051085
:1031C000EBE0D89012361336023603360406D8A048
:1031D0000506F2D70550D4E10428D2E012AE11D092
:1031E0007F0E121402E113A00CD0132AE86A022207
:1031F000032207E3D880033202321332042A042860
:10320000BFE00450C9E013C007F002C008F0033467
:10321000096E04300A6E09320A9E01BE0A8EBFEFA3
:1032200018F009360A3602E30184017E06E10180C6
:103230000A6A096A086A076A12000A2803E0D88045
:1032400009321200D890093202E10182120001868F
:1032500012000E360F3602E3018C017E06E1018872
:103260000F6A0E6A0D6A0C6A12000F2803E0D880FC
:0E3270000E321200D8900E32EAE1018A1200EE
:02327E0002014B
:10328000106B116B126B136B246B256B266B276B0A
:10329000286B296B2A6B2B6B1C6B1D6B1E6B1F6BBA
:1032A000166B176B186B196B1200D9CFE6FFE1CFC5
:1032B000D9FFFB0EDBCF14F0FC0EDBCF15F0FD0EBB
:1032C000DBCF16F0FE0EDBCF17F00C6A0D6A0E6A2C
:1032D0000F6A14C007F015C008F016C009F017C037
:1032E0000AF05BEC18F0010A2DE1FB0EDBCF18F0C1
:1032F000FC0EDBCF19F0FD0EDBCF1AF0FE0EDBCF9C
:103300001BF00C6A0D6A800E0E6EBF0E0F6E18C099
:1033100007F019C008F01AC009F01BC00AF00CEC45
:1033200017F007C014F008C015F009C016F00AC065
:1033300017F007C006F008C007F009C008F00AC07F
:1033400009F014D0FB0EDBCF14F0FC0EDBCF15F030
:10335000FD0EDBCF16F0FE0EDBCF17F014C006F02B
:1033600015C007F016C008F017C009F0E552E7CF06
:10337000D9FF1200D9CFE6FFE1CFD9FF040EE12635
:10338000DE6ADE6ADE6ADD6ADD52DD52F70EDBCF11
:1033900007F0F80EDBCF08F0F90EDBCF09F0FA0EDC
:1033A000DBCF0AF00C6A0D6A0E6A0F6A4BEC18F05C
:1033B000010A01E164D202011B2B1A511B5D34E3A7
:1033C000F70EDBCF14F0F80EDBCF15F0F90EDBCFE4
:1033D00016F0FA0EDBCF17F016C20CF017C20DF084
:1033E00018C20EF019C20FF014C007F015C008F093
:1033F00016C009F017C00AF022EC16F007C01CF244
:1034000008C01DF209C01EF20AC01FF202011B6BA8
:10341000F70EDBCF16F2F80EDBCF17F2F90EDBCF8B
:1034200018F2FA0EDBCF19F2212BF70EDBCF14F0D6
:10343000F80EDBCF15F0F90EDBCF16F0FA0EDBCF6E
:1034400017F014C00CF015C00DF016C00EF017C028
:103450000FF028C207F029C208F02AC209F02BC2D7
:103460000AF023EC16F007C028F208C029F209C0C0
:103470002AF20AC02BF202012051215D01E2B2D0F2
:103480002C5101E0A9D021C209F0FCEC15F007C0D5
:1034900014F008C015F009C016F00AC017F007C0F4
:1034A0000CF008C00DF009C00EF00AC00FF028C2E1
:1034B00007F029C208F02AC209F02BC20AF0B9ECC1
:1034C00016F007C028F208C029F209C02AF20AC083
:1034D0002BF207C00CF008C00DF009C00EF00AC0B6
:1034E0000FF024C207F025C208F026C209F027C257
:1034F0000AF023EC16F007C024F208C025F209C038
:1035000026F20AC027F20201000ED8802255000ED2
:10351000235562E224C2E6FF25C2E6FF26C2E6FF8B
:1035200027C2E6FFC2DEE552E552E552E55206C08B
:1035300014F007C015F008C016F009C017F022C239
:1035400008F023C209F00DEC16F007C018F008C00F
:1035500019F009C01AF00AC01BF007C00CF008C02F
:103560000DF009C00EF00AC00FF014C007F015C02E
:1035700008F016C009F017C00AF052EC18F0010A62
:103580002BE10C6A0D6A0E6A0F6A24C207F025C28D
:1035900008F026C209F027C20AF05BEC18F0010A15
:1035A0000DE122C214F023C215F0146C151E000E9A
:1035B000152214C008F015C009F004D022C208F08A
:1035C00023C209F00DEC16F007C024F208C025F262
:1035D00009C026F20AC027F20201286B296B2A6B68
:1035E0002B6B216BF70EDBCF14F0F80EDBCF15F051
:1035F000F90EDBCF16F0FA0EDBCF17F004C20CF099
:1036000005C20DF006C20EF007C20FF014C007F09D
:1036100015C008F016C009F017C00AF00CEC17F03E
:1036200007C010F208C011F209C012F20AC013F26A
:1036300008C20CF009C20DF00AC20EF00BC20FF066
:1036400024C207F025C208F026C209F027C20AF0FA
:103650000CEC17F007C014F008C015F009C016F004
:103660000AC017F007C00CF008C00DF009C00EF03A
:103670000AC00FF010C207F011C208F012C209F020
:1036800013C20AF023EC16F007C010F208C011F2C2
:1036900009C012F20AC013F20CC20CF00DC20DF0F8
:1036A0000EC20EF00FC20FF01CC207F01DC208F0D0
:1036B0001EC209F01FC20AF00CEC17F007C014F08C
:1036C00008C015F009C016F00AC017F007C00CF0CA
:1036D00008C00DF009C00EF00AC00FF010C207F0CC
:1036E00011C208F012C209F013C20AF023EC16F05E
:1036F00007C010F208C011F209C012F20AC013F29A
:103700000C6A0D6A0E6A0F6A00C207F001C208F067
:1037100002C209F003C20AF04BEC18F0010A40E0C3
:10372000FB0EDBCF18F0FC0EDBCF19F0FD0EDBCF6C
:103730001AF0FE0EDBCF1BF000C20CF001C20DF040
:1037400002C20EF003C20FF018C007F019C008F053
:103750001AC009F01BC00AF00CEC17F007C014F0F7
:1037600008C015F009C016F00AC017F007C00CF029
:1037700008C00DF009C00EF00AC00FF010C207F02B
:1037800011C208F012C209F013C20AF023EC16F0BD
:1037900007C010F208C011F209C012F20AC013F2F9
:1037A0000201000ED8801455000E155566E210C2B5
:1037B000E6FF11C2E6FF12C2E6FF13C2E6FF75DDA7
:1037C000E552E552E552E55206C014F007C015F087
:1037D00008C016F009C017F014C208F015C209F0AD
:1037E0000DEC16F007C018F008C019F009C01AF067
:1037F0000AC01BF007C00CF008C00DF009C00EF0A5
:103800000AC00FF014C007F015C008F016C009F088
:1038100017C00AF052EC18F0010A2FE10C6A0D6A89
:103820000E6A0F6A10C207F011C208F012C209F046
:1038300013C20AF05BEC18F0010A0DE114C214F097
:1038400015C215F0146C151E000E152214C008F0D8
:1038500015C009F004D014C208F015C209F00DEC2F
:1038600016F007C010F208C011F209C012F20AC027
:1038700013F20201010E2C6F02D002012C6B10C258
:1038800007F011C208F012C209F013C20AF01CECD2
:1038900018F008C014F009C015F008C0F3FF09C003
:1038A000F4FF040EE15C02E2E16AE552E16EE552EA
:0638B000E7CFD9FF120072
:0A38B600D9CFE6FFE1CFD9FFE652BB
:1038C000DF6ADF06FEE1F00E8216FE0EDB380F0B1C
:1038D0000F0B8212828C829CF00E8216FE0EDB5041
:1038E0000F0B8212828C829CE552E552E7CFD9FF02
:1038F0001200819E010EE66EDEDFE552020EE66EDC
:10390000C8EC1EF0E5521200D9CFE6FFE1CFD9FF97
:10391000020EE126DF6A818EFD0EDBCFE9FFFE0E8F
:10392000DBCFEAFFEF5018E0DF2AFD0EDBCFE9FF27
:10393000FE0EDBCFEAFF010EEFCFDBFFFD0EDBCF8C
:10394000E9FFDB2AFE0EDBCFEAFF01E3DB2AEF50C3
:10395000E66EB1DFE552E0D7FC0EDB500DE0180E4D
:10396000DF5C0AE2180EDF5C07E2DF2AFC0EDBCF29
:10397000E6FFA1DFE552F6D7020EE15C02E2E16A62
:10398000E552E16EE552E7CFD9FF1200D9CFE6FF4D
:10399000E1CFD9FF818EFE0EDBCFE6FF8CDFE55253
:1039A000E552E7CFD9FF1200D9CFE6FFE1CFD9FF2B
:1039B000819EFE0EDB50800FE66E7DDFE552E55204
:1039C000E7CFD9FF1200D9CFE6FFE1CFD9FF819E23
:1039D000FE0EDB50C00FE66E6EDFE552E552E7CF1C
:1039E000D9FF1200D9CFE6FFE1CFD9FF819EFE0EAD
:1039F000DB50940FE66E5FDFE552E552E7CFD9FF6B
:103A00001200D9CFE6FFE1CFD9FF819EFE0EDB5039
:103A1000D40FE66E50DFE552E552E7CFD9FF120032
:103A2000D9CFE6FFE1CFD9FF030EE126C26ADF6EF0
:103A3000800E9316F00E9416819E829C819A0F0E32
:103A4000E66EC8EC1EF0E552F00E8216DF508212D0
:103A5000828C829C050EE66EC8EC1EF0E552828CCC
:103A6000829C010EDB6ADB06FEE1828C829C020EE8
:103A7000DB6ADB06FEE1F00E82168282828C829C7B
:103A8000280EE66E18DFE5520C0EE66E14DFE552E6
:103A900030DF060EE66E0FDFE552030EE15C02E258
:0E3AA000E16AE552E16EE552E7CFD9FF120070
:023AAE00D9CF6E
:103AB000E6FFDACFE6FFFA0EE3CFD9FFFB0EE3CF46
:103AC000DAFFFD0EE35209E72D0EDE6EFC0EE31E5B
:103AD000E32AFD0ED8B4E306E31EE652E652E652B0
:103AE000FD0EE124E76EFF0EE220E46EE652F70ED3
:103AF000E3CFE6FFF70EE3CFE6FFC7EC1DF0F90ECC
:103B0000E124E96EFF0EE220EA6EB7EC1DF00AE157
:103B1000B4EC1DF009E1B7EC1DF008E1B4EC1DF0C8
:103B200007E108D0C2EC1DF0BDEC1DF0C2EC1DF0A9
:103B3000BDEC1DF0C2EC1DF0DE6AF90EE126FF0EB1
:103B4000E222FF0EE3CFDAFFE552FF0EE3CFD9FF0B
:103B5000E552FC0EE124E96EFF0EE220EA6EEECFA4
:103B6000F3FFEFCFF4FF1200EF380F0B1200EF500E
:103B70000F0B02E1EE52D8841200EF380F0B300F1A
:103B8000DE6E1200EE500F0B300FDE6E1200FC0ED8
:103B9000E3CFE9FFFD0EE3CFEAFF100EE66EEE6A1B
:103BA000EE6AEF6AD890FD0EE336FE0EE336ED3690
:103BB000ED36EF36FF0EE30609E0E8EC1DF0EE52BD
:103BC000E8EC1DF0EE52E8EC1DF0EDD7E56E1200CA
:103BD000030EEF24E8B6EF6E300EEF24E8BEEF6E72
:023BE000000CD7
:0E3BE200207C434C00207C5200207C4D0020B3
:103BF0007C4C00456E632E205265736F6C75746942
:103C00006F6E004D61782052504D004D6178204418
:103C1000555459002E3000454E4320005452472041
:103C20000029002F0025202800445554593A00450A
:103C300052313A004552303A00523D476F005374BA
:103C40006570200052554E4E494E473A2000496E4D
:103C50006465786572004C3D4677642E0052657647
:103C600065727365202D2043570053746F70204D8B
:103C70006F746F7220546F204368616E67652044D3
:103C80006972004C3D5265762E00466F7277617204
:103C900064202D20434357004C3D53746F70002522
:103CA00000445554593A200052504D3A20004C3DA2
:103CB000537461727400504155534544005354414C
:103CC0004C4C454421005452473A20004D6F7267D6
:103CD000616E2056617269656E74202D2076312EDA
:103CE00032650047696E67657279204C617468655A
:013CF00000D3
:0E3CF2001E0EF66E000EF76E000EF86E00014C
:103D00000900F550EE6F0900F550EF6F03E1EE6723
:103D100001D03DD00900F550E96F0900F550EA6F78
:103D20000900F550EB6F09000900F550E96E090034
:103D3000F550EA6E090009000900F550EC6F090022
:103D4000F550ED6F09000900F6CFF0F0F7CFF1F074
:103D5000F8CFF2F0E9C0F6FFEAC0F7FFEBC0F8FFDA
:103D60000001EC5302E1ED5307E00900F550EE6E5F
:103D7000EC07F8E2ED07F9D7F0C0F6FFF1C0F7FF66
:103D8000F2C0F8FF0001EE07000EEF5BBFD7120094
:103D9000D9CFE6FFE1CFD9FF020EE126040EDF6E98
:103DA000010EDB6ADB06FEE1DF06FAE1FE0EDB0652
:103DB000F5E1020EE15C02E2E16AE552E16EE552F4
:103DC000E7CFD9FF1200D9CFE6FFE1CFD9FFE65206
:103DD000040EDF6EFA0EE66EDBDFE552DF06FAE177
:103DE000FE0EDB06F5E1E552E552E7CFD9FF120002
:103DF000D9CFE6FFE1CFD9FFA69EA69CFE0EDB50F1
:103E0000A96EA680A850E552E7CFD9FF1200D9CFFE
:103E1000E6FFE1CFD9FFA69EA69CFD0EDB50A86E63
:103E2000FE0EDB50A96EA684F29E550EA76EAA0E5A
:103E3000A76EA682F28EA6B2FED7A694E552E7CF71
:043E4000D9FF120094
:0C3E4400056A046A036A180EE76ED89045
:103E50000736083609360336043605360C50035C3F
:103E60000D5004580E50055807E30C50035E0D50DA
:0E3E7000045A0E50055A072AE72EEAD7120010
:023E7E00000E34
:103E8000F36E00EE00F0030E01D81200EA6002D0DB
:0E3E9000EE6AFCD7F350E9601200EE6AFCD730
:023E9E0011EE23
:103EA00000F021EE00F0F86A019C79EC1EF003ECC2
:0A3EB00000F074EC01F0FBD71200E3
:063EBA0001000000000001
:103EC00000000000000002010102021E00010000CB
:103ED00000000000000000000000FFFF9600DC056D
:103EE0000100010000000000006000000000000070
:0C3EF000000000000000000001000000C5
:043EFC0000000000C2
:103F000000000000000000000000000000000000B1
:103F100000000000000000000000000000000000A1
:103F20000000000000000000000000000000000091
:103F300001000000FF000000000001000301020278
:033F400007020174
:0D3F43000000000000000000000000000071
:103F50000000000000000000000000000001000060
:103F60000000000100000000000000000000000050
:020000040030CA
:0100010028D6
:010003001EDE
:0100050008F2
:010006008178
:00000001FF
